:08000000C7C1FECFFDCFFCCF0C
:10000800FBCFFACFF9CFF8CFF7CFF6CFF5CFEBC1CB
:10001800F3CF2CC2F1CFF0CFEFCFEECFEDCF050766
:100028002060000000000000005F000000070007DB
:1000380000147F147F14242A7F2A12231308646271
:1000480036495522500005030000001C22410000DB
:1000580041221C00082A1C2A0808083E08080050EB
:100068003000000808080808003030000020100898
:1000780004023E5149453E00427F400042615149D9
:10008800462141454B311814127F10274545453903
:100098003C4A494930017109050336494949360640
:1000A8004949291E0036360000005636000000086F
:1000B800142241141414141441221408000201518A
:1000C8000906324979413E7E1111117E7F4949491D
:1000D800363E414141227F4141221C7F49494941E5
:1000E8007F090901013E414151327F0808087F001C
:1000F800417F41002040413F017F081422417F4059
:100108004040407F0204027F7F0408107F3E414147
:10011800413E7F090909063E4151215E7F0919299F
:1001280046464949493101017F01013F4040403F6E
:100138001F2040201F7F2018207F631408146303AA
:1001480004780403615149454300007F414102049A
:1001580008102041417F0000040201020440404091
:100168004040000102040020545454787F4844441D
:10017800383844444420384444487F385454541848
:10018800087E090102081454543C7F0804047800CE
:10019800447D40002040443D00007F102844004139
:1001A8007F40007C041804787C08040478384444B0
:1001B80044387C14141408081414187C7C080404AB
:1001C800084854545420043F4440203C4040207C7C
:1001D8001C2040201C3C4030403C44281028440C43
:1001E8005050503C4464544C4400083641000000D0
:1001F8007F0000004136080002010204027F4141ED
:10020800417F2A001000000004040C0C1C3CFCFC7C
:10021800FCFCFCFCFCF0E0E0E0FCF0FCE0E0E0F0E2
:10022800FCFCFCFCFCFCFC3C1C0C0C04040000006A
:10023800000000000000000003030303030303039E
:1002480007070F1F7F1F0F0707030303030303039A
:10025800030000000000000000000F002000000064
:100268000000FE0703030307FE0000000000000073
:1002780000FF00FCFEFC00FF00000000C0E030981A
:10028800CFE0FFFFFFE0CF9830E0C00F1F3067CF0F
:100298009F9F9F9F9FCF67301F0F11001F00FCFE7D
:1002A8003E3F3F3F3F3F3F3F3F3F3F3F3EFEFCFF1C
:1002B800FF00000000000000000000000000FFFF39
:1002C800FFFF00000000000000000000000000FF29
:1002D800FF1F7F7C7C7C7C7C6C446C7C7C7C7C7C85
:1002E8007F1F000103070F1F3F7FFF001027E80350
:1002F80064000A0001000010000110000100000065
:100308000000F401D4FE0A426C7565746F6F74685E
:100318000A436F6E6578616F0A4F4B2E2E2E000AC6
:100328002020496E696369616E646F200A2020206D
:10033800446F776E6C6F61642E2E000A2020446F24
:10034800776E6C6F6164200A202020436F6E636CA7
:100358007569646F210001002D4E414E00494E46DB
:10036800000001000200060302000400080319004F
:1003780060010E031C00790127031B00950143034C
:100388000100FF035E030000F894EE27ECBBF1E0E8
:10039800FBBFEBBFE5BFF8E1F1BDE1BD8DE0A2E039
:1003A800BB27ED938A95E9F780E094E0A0E6ED930A
:1003B8000197E9F7EAE6F3E085919591009761F0F6
:1003C800A591B59105901590BF01F00105900D928A
:1003D8000197E1F7FB01F0CFEFE5EDBFE4E0EEBFF9
:1003E800C0E6D1E089C16ED7C9D91BB10CB1E1E033
:1003F800F0E02F01E12FEC71B1F4EC2DC394F0E0A3
:10040800E151FE4F0083E8E0EC1509F4CC24A091FB
:10041800F801AF5FA093F801A83029F4E0E0E09379
:10042800F801689420F80991199137C01A93E0915E
:10043800F801E030E1F3E091F701EF5FE093F701B5
:10044800E150F0E0E151FE4F1081A091F701A83092
:1004580019F4E0E0E093F701F894E091F801E15035
:10046800E093F8017894E12F199108952BD730D7AC
:10047800E03099F02DD7E150E0930302E0910202B9
:10048800EF5FE093020227D7E081ECB9A091020266
:10049800A83019F4E0E0E0930202E991EFBFF99186
:1004A800E991A9911895AA93A0910302A830E1F3C4
:1004B800F8940ED7E03011F45D9914C0E091010270
:1004C800EF5FE093010207D7A881A083A091010202
:1004D800A83019F4E0E0E0930102FAD6EF5FE09368
:1004E800030202C0E881ECB9789421C3E7E0F0E0A8
:1004F800F7D6E6E0F0E0F4D6A9E0B0E038D2A72DD0
:10050800F2D6E093CD01A72DF4D6E093CE01EAE32D
:10051800E093CF01A62DE7D6E093D001A62DE9D62A
:10052800E093D101EAE3E093D201A92DDCD6E09370
:10053800D301A92DDED6E093D401EDE0F0E0D0D6CA
:10054800E8E0F0E0CDD6EBE0F0E0CAD6AAE0B0E013
:100558001AD2A82DC8D6E093D501A82DCAD6E09303
:10056800D601EFE2E093D701AB2DBDD6E093D801D9
:10057800AB2DBFD6E093D901EFE2E093DA01E2E3D5
:10058800E093DB01E0E3E093DC01AA2DBB27E4E67E
:10059800F0E0B5D6E093DD01AA2DABD6E093DE01FD
:1005A8000895ECD8E0E2E093DF01A0E0AFD18F013D
:1005B800112332F4EDE2E093DF01F80138D88F011E
:1005C8000436E0E01E0714F4E0E205C0D801E4E6D2
:1005D800F0E08AD8E05DE093E001D801E4E6F0E0DD
:1005E8008ED6E093E101EEE2E093E201D801EAE081
:1005F800F0E07FD8E05DE093E301E0E2E093E4011E
:10060800E3E4E093E50151C0B9D880D66FDF81D625
:10061800389684D688D640F491D60F01ADECB1E077
:1006280091D696D69DD6F6CF89D6A0E2A08390D64D
:10063800B8DF6FD6379672D669D675D640F47ED6AF
:100648000F01AFEDB1E07ED68BD682D6F6CF76D647
:10065800AAE0A0837DD629C091D858D6E8E0F0E07A
:10066800E093E601F093E701A091E601B091E7017C
:10067800529750F4E091E601F091E70174D613DF48
:10068800A6EEB1E074D6F0CFAAE00DDFE091EA0162
:10069800F091EB010E171F0740F4AEEEB1E0A00F8A
:1006A800B11FAC9100DF5CD6F1CF09911991089583
:1006B800AA93E881E09304023CD2A0E6B1E047D5D2
:1006C800E1E4EA93E5E0EA93E2EAF2E056D658D6A6
:1006D800A0910402A13661F42CD255D6A9E7B1E065
:1006E80029D54ED6B9DF4FD6A5E9B1E023D548D6EE
:1006F800E0E3E09304021BC22B9708D620E030E029
:10070800E0E0E8BBEFEFE7BBE0E0E5BBEFE7E4BB29
:10071800E0E0E2BBE1BBE3BFE2BFEFBDEEBDEDBD94
:10072800ECBDE7BDE6BDEBBDEABDE9BDE8BDE2BD98
:10073800E5BDE4BDE3BDE5BFE9BFEBB9E8EDEAB966
:10074800E6E8E0BDE0E0E0BDEFE2E9B9E0E8E8B9FD
:10075800E0E0E0BFE6B9EDB9E6BF0ED719D6E6EF9F
:10076800EA93E2E3EA93A0E0BAD012D611D6A0E069
:10077800E5D0E6E2F0E0E883F983E0E0EA83EB83A2
:10078800EC83ED83EE81EC7FEE83E37EEC60EE8319
:10079800EF81E078E263EF83DE0154D17894FBD5F2
:1007A800EF5FE887AFE3B3D1B1D50C30E0E01E07C7
:1007B8000CF042C0F0D5A885EA1721F400240216EF
:1007C800030609F003C020DF21E030E0E8D509F492
:1007D800EBD5AFD1ECE2EA93DBD5EAE0F2E0CDD598
:1007E80085DE42E150E0E0E0E093E801E093E901D2
:1007F800E2D5189750F44A93E2E1E2D593D44A5FE0
:100808005F4FA8EEB1E0B3D5F3CF4EE050E0E8E09B
:10081800F0E0E093E801F093E901CDD5529750F468
:100828004A93EEE1CDD57ED44A5F5F4FA8EEB1E0A2
:100838009ED5F3CFCBD5B9CF69D50031E0E01E07FF
:100848000CF03FC0A8D5A885EA1721F400240216A9
:10085800030609F003C0D8DE21E030E0A0D509F492
:10086800A3D567D19EDEEAE0B5D5A091DF015AD4C1
:10087800E0E1B0D5A091E00155D4E6E1ABD5A09177
:10088800E10150D4EBE1EA93E5E1EA93A091E201BA
:1008980049D4EFE19FD5A091E30144D4E4E29AD58D
:1008A800A091E4013FD4EAE295D5A091E5013AD4BC
:1008B800ECE3EA93E7E0EA93E2E6F2E05ED586D578
:1008C800BCCF20E030E06BCFFFCFAA935AD6AA81E5
:1008D8008CD6A9818AD6A88181D562D6D6C481D57D
:1008E800EC8182D587D581D6E981EE0FEE0FAE2F48
:1008F8007CD656D61A93E2E0EA93AD81E6DF1A93E6
:10090800E3E0EA93AC81E1DF188174C4AA932297EB
:100918001A93EB8169D562D534D61F5FA12F6AD5AA
:1009280049D6EA83A0E046D6E9833AD666D5E7E019
:1009380092D6A5E0B0E0C0D61881C2C4AA93EA81D5
:10094800E370EA83E981E03019F0EA81E061EA8343
:10095800E881E03019F0EA81E068EA8312D6A0ED78
:1009680044D6A7E042D6AA8140D61AD68EC448D526
:1009780035D54BD54ED5A881B9814ED550D554D54E
:10098800EC930ED624C13CD530D6A3E02ED63DD567
:1009980011D6AE81BF8140D547D53ED540D547D584
:1009A800EC93FED5BDC308951CD5AA9818E0FBDFCB
:1009B800E981E07811F0AB9A01C0AB98E981EE0FBC
:1009C800E983F1DFAD9AEFDFAD98115081F7AA9A6C
:1009D80018811AC4AA93AC98A881E6DFA8C0AA9384
:1009E800AC9AA881E1DFA3C0FCD424D51E2FE4E58E
:1009F800E19FF001DF01EA8122D5E0930502F0933F
:100A08000602E12F188141C4AA93E9811CD5E98126
:100A1800EA93A981E9DFE064AE2FDCDFF5C3AA938E
:100A2800E981EA93A981F0DFE0910502F0910602DD
:100A38000DD5E081E9C3AA930CD50ED5A881A08372
:100A4800CEDF75C00BD598D6A29AAA9AA59AAD986A
:100A5800A39AA49AA19AA998AAE0B0E0DED5A99A87
:100A680000D53097C9F0FDD4E681E3701E2FF9D484
:100A7800E681E695E695E7700E2FF3D4E781EF77E8
:100A88003E2FD2D452D6F0D4CFD412964ED6F1D42B
:100A9800CBD414964AD608C010E003E032E3EED473
:100AA800E3D4ECD4E6D4EAD4E093CB01F093CC01C0
:100AB800A1E290DFE12FE460AE2F8CDFE02FE06150
:100AC800AE2F88DFE32FBFD4A0E284DFA1E026D0D9
:100AD800E1E0E093B001E0E0E093B101E1E0E09310
:100AE800B601E093B701E093B801EFEFE093B901E5
:100AF800E1E0E093C001E1ECF1E0F2D3EFEFEA933B
:100B0800A8E0B0E06AD315D0E1E03DD660C0AA9372
:100B1800A1E260DFE88197D4A0E208C0AA93E88147
:100B2800E03011F0ECE001C0E8E0AE2F53DF219691
:100B3800089522D630E0E091B101E03009F03FEFAE
:100B480027D4A0E061DF08EF11E0F8010150104060
:100B5800309719F0A32F6FDFF8CF1AD4A0E024D371
:100B680012D6AEC33ED4ED81EA93AD8158DF1E2F75
:100B7800E981E73011F0E83031F4EB81EA93AA819A
:100B880045D3EB8308C0E33021F4EB81E095EB8398
:100B980002C0E03021F4EA81E0951E2302C0E23071
:100BA80029F4EA81AB81EA231E2B0EC0E13029F437
:100BB800EA81AB81EA231E2707C0E43029F4EA81E1
:100BC800E095AB81EA2B1E23A12F35DF18812696ED
:100BD8000895AA932397CED5A889A43548F4AF855C
:100BE800A03330F4AE85A03019F0AD85A03009F4FB
:100BF8008DC1EE85E887A889BB27EE8542D4A53547
:100C0800E0E0BE0720F0A889E4E5EA1BEE872D8521
:100C1800AF85BB27ED8535D4D19720F0AF85E0E3CC
:100C2800EA1BED87A985A63009F056C0EC85E130AE
:100C380009F46CC1E33039F4E091CB01F091CC01B7
:100C4800309709F463C10885ED85E695E695E69544
:100C58003E2FE22FE77019F4AD852A17D9F0A02F9F
:100C6800BB27E32F12D4AA85BB85EA0FFB1F10D43C
:100C7800269526952695532F5F935F5FE22FAF91B8
:100C8800EA1740F0102FE12F1150E03011F003D493
:100C9800FACFF2CFAE850A17F9F0EE85AA85BB85A3
:100CA800CED3F6D3ED85E77009F03F5F20E02F93B0
:100CB8002F5FE32FAF91AE1778F41E851F931F5F48
:100CC800E02FAF91AE1710F4E6D3F8CFEE85AE81E2
:100CD800BF81B5D3DDD3EBCFEF85E7703E2FED8530
:100CE800E03009F413C1EA85FB85D2D310E0088906
:100CF800303009F05AC0AD85A83008F451C0E985F4
:100D0800E03011F0E33009F402C0E73009F402C022
:100D1800E83009F402C0E93009F402C0EA3019F4F5
:100D2800C5D372DE04C0E63011F4C0D35DDE1F9374
:100D3800C0D3AF91AE1768F5A985A63039F4BCD3F6
:100D4800CFD287D389D3A081A2D222C0E985E93046
:100D580011F450E00CC0EA3011F45FEF08C0ACD3D6
:100D6800B4D35E2FE985E73011F0E83019F4B2D337
:100D78005E2F06C0E33011F4509502C0E03019F43C
:100D8800A52F2DDE05C0A9D3EFEFEA93AD85EADEE6
:100D9800CECFEF85E85FEF87ED85E850ED87AFC0F0
:100DA8005D8520E0E0E0ED8768C0E32FAD85AE0FFC
:100DB800A93020F42D85E0E0ED8703C0E8E0E31BCF
:100DC8002E2F3A93A22F18D24E2FE985E630C1F480
:100DD8006DD30ADE1F936DD3AF91AE1780F439D36C
:100DE8003BD3E081E423AE2FE32F2DD47CD3E32F34
:100DF800A42F29D482D374D2A52F49D2EBCF22C0F5
:100E0800E93011F450E003C0EA3089F45FEF62D3AF
:100E1800AE2FE32F10D45E2F1F934BD3AF91AE1795
:100E280028F45BD34A93A0E09DDEF6CF0BC01F9356
:100E380040D3AF91AE1730F464D3AE2FE32FFBD37A
:100E48006DD3F5CFED85E03009F460C0AD85A830ED
:100E580028F4ED85E21B5E2FE0E003C0532FED85FB
:100E6800E850ED8710E0EF85E85FEF87E8E0E31BE7
:100E78002E2F0889EA85FB850BD3E52FF0E0E65194
:100E8800FD4F4491E985E630C1F410D3ADDD1F93E1
:100E980010D3AF91AE1780F4DCD2DED2E081E42328
:100EA800AE2FE22FC8D31FD3E22FA42FC4D325D34C
:100EB80017D2A52FECD1EBCF22C0E93011F450E0C6
:100EC80003C0EA3089F45FEF05D3AE2FE22FBBD31E
:100ED8005E2F1F93EED2AF91AE1728F4FED24A933D
:100EE800A0E040DEF6CF0BC01F93E3D2AF91AE1760
:100EF80030F407D3AE2FE22FA6D310D3F5CFE88571
:100F0800AA85BB859CD2EA87FB87E9CE3AD461964D
:100F18000895A4D28CD22AD414F0B0D275C187D245
:100F2800A435E0E0BE071CF0E3E5F0E06DC1E88120
:100F3800F9816AC193D27BD219D414F09FD264C1CB
:100F480076D2D0971CF0EFE2F0E05EC1E881F9813B
:100F58005BC147D2AA81A43518F4A981A03318F03F
:100F6800E1D2188192C1E981E7701E2F63D2E9832B
:100F7800103011F0EF5FE983AA81BB2788279927F2
:100F8800E981FF276627772777D3EC5FFF4F6F4FFD
:100F98007F4F18817AC162D22397C9D28F01002E60
:100FA800012A11F46BD255C0C8D204900F82C5D261
:100FB80004900E82C2D204900886EB85A885EA17B1
:100FC80010F45CD246C0B9D25491A885BB27EE274D
:100FD800A50FBE1FEB85F0E0EA17FB0710F04ED215
:100FE80038C0EE81E695E695E6954E2FEE81E770DE
:100FF80009F04F5FEF81E03081F0A985BA85EC9365
:10100800A885EB85EA1BF0E0DF01EF813ED2DF0126
:10101800E42F3BD2E00FF11F1CC09801E52FF0E050
:101028000E0F1F1FA885AF5FA887A150EB85AE17CD
:1010380050F4F9012F5F3F4FA491B0E0E42F25D27F
:101048000E0F1F1FEFCFF901E491A985BA85EC9324
:10105800F80197D32C960895E0E0E093B201A091AF
:10106800B301BB276CD20DD2E091B7010AD262DF7F
:10107800E093B3010895AA93219759D2309709F4C0
:101088004CC0AF81AA3009F446C0EF81EA93DE0173
:10109800179681DFAF01309709F441C0E091B6019E
:1010A800AE81EA0F3E2FA091B201BB27C8D18F01B4
:1010B8000535E0E01E0718F0032F1127CDDFE0917A
:1010C800B20144D2E885EA933AD2EA93E1E0EA939E
:1010D8005A934A93A7E07DDDE091B201AE81EA0F11
:1010E80035D2E091B601EA932AD2EA9351D133D2AC
:1010F800E091B201EA93A091B30121D2EA0FEA93F9
:101108003A93E091B701EA9343D125D2E4E5F0E0C0
:10111800E017F10711F4A0DF02C00093B20131D348
:1011280028960895AA93EA81EA93AA813DD0A881D6
:10113800A2DFABC093D11A93EC81EA93AC8134D08F
:101148000ED219F0A12F97DFFBCF188153C086D19B
:101158001A9305D219F0A12F8EDFFBCF188195C005
:10116800AA930AD3AC81A530D8F400D2059101D254
:101178001591FFD12591FDD13591ED83FE83E88549
:10118800EA93E885EA930A932A93E1E0EA93EA85E9
:10119800FB85A6D0AB851DDD0A93A22FDADE01C040
:1011A800C1D1F1D229960895AA93A981BB27B1DEAE
:1011B800E093B201A881BB27BDDEE093B30124C050
:1011C800AA93E881E295EF70AE2FAA0FAA0FEA0F53
:1011D800EE0FA991AF70EA0F089540D1B981A881A7
:1011E800109631F0FC81EB816A8161931197E9F7E0
:1011F800EB81FC8125960895AA93E881F0E0E651F9
:10120800FD4FA491E98117D222960895EAD0E98189
:10121800E73011F0EA3019F41091B00109C0E93053
:1012280019F41091B10104C0E830A1F41091C00183
:10123800E091B101E03049F0103019F0EFEF18817A
:1012480024C0EA81E095188120C0103019F4E0E04C
:1012580018811BC0EA81188118C000D1EA81E130E9
:1012680021F4E881F981E49110C0E23019F4DFD06B
:1012780060D20BC0E33039F4DAD0E091C901F091C3
:10128800CA01099502C0D3D0EC9123960895AA9378
:10129800EB81E03021F4E881B0D0EC9311C0E2306A
:1012A80021F4E881AAD051D20BC0E33049F4E98196
:1012B800FA8116D0AA81E091CB01F091CC01099571
:1012C80024960895AA93EA93FA93EFB7EA930895B8
:1012D800E09103020895E150F0E0E750FE4F0895D1
:1012E800FA93EA930895B0E0EAE0F0E0FDD1E05D1A
:1012F8000895BB27EAE0F0E0FCD1E05D0895F9D15C
:10130800DF01EAE0F0E0F0D1E05D089500E010E0F0
:101318000895E091EC01F091ED010895E093EA0160
:10132800F093EB010895E091EA01F091EB01A091AF
:10133800EC01B091ED01AE17BF070895EADFE25165
:10134800FE4F0895A00FB11FEC91D001EC930895C2
:10135800ACEEB1E0ED91FD913196FE93EE930895D8
:101368000F5F1F4F0895E353FE4FA0810895ED913D
:10137800FD913196FE93EE930895B2DFA0E0F0CE92
:10138800A0EDB7E04AC1E0E0EA93EAE0EA93089505
:10139800E0E0EA930895AAD8E091D1010895E1E048
:1013A800F0E0E415F505089541D8EA87AA8580D9C3
:1013B800442455240895A091E801B091E9010895C5
:1013C800EA93E091E801F091E901CDCFA4EFB1E013
:1013D80024D1C6CFEA93E4E1EA93089506D1A0E0C8
:1013E80004C1AA931A930895EE0FE0691E2FC9D07D
:1013F800A12F0895FAD0A1E00895A981BA8108958E
:10140800BA93AA93BED0A0ED0895CAD0BAD0A1EDE0
:10141800F1CFD0D0AE2FD4CEEC93A1E0FACFAA81F1
:10142800BB81EC93A0E0F5CFAC81BD810895A88184
:10143800B9810895E981E695E695E6950895F0E085
:10144800EA0FFB1F0895E068AE2FC4CAE95FFD4F9D
:101458000895A5E0B2E08BCF3197F8CFBA93AA935D
:101468000895EC81FD810895E093B401F093B501EE
:101478000895E093C901F093CA010895E0E0F0E00F
:101488000895F0E0AE0FBF1F0895F0E0EDD0089585
:10149800EE83FF830895EC85EA93EF81F885319612
:1014A800EF83F88731971CDFA0E0F1CE0A93A88973
:1014B80008951F5FEE850895EC85EA93EF81F8851E
:1014C8003196EF83F8873197089566277727DF01EC
:1014D800CB01C3CE5A93AA8599CE0A930395E8897E
:1014E800EA935A9308955E2FEC85EA93AF81B88505
:1014F80088279927B2DE1E2E0895E095E1215E2BFC
:10150800DBCF0A930395E889EA93EE85EA93E985A8
:10151800FA853196E987FA873197D7CFEA934A93C4
:10152800AD8520CBE0E0F0E060E070E0089522D1E6
:10153800E091B401F091B5010895F80111CFE0915F
:10154800B401F091B5013196E4910895EA93E091E0
:10155800B301EA93089592DFC3DEA9E03ACB4DDFE9
:10156800ED91A983BA831E2FE0300895ED81FE81A5
:101578000895ED83FE83FACFC198C098B99AB898B8
:1015880015C0B898B998EE270000B09B0895B19B94
:10159800089504D0B89A02D0B99AE1E069E107C089
:1015A800B89AB99A03D0B998F9DFB89861E36A95FF
:1015B800F1F7089578E0B998F1DFB19BFECFEEDF3F
:1015C8008894B0990894B99AF1DFEE1F7A9599F743
:1015D8007A2F772311F4B89801C0B89ADFDFB99849
:1015E800E5DFB99ADBDFB898D9CF78E0AA0F10F415
:1015F800B89801C0B89ADADFB998D0DFB19BFECFAE
:10160800CDDFB99A7A9591F7B898C8DFB998CEDF47
:10161800E1E0B099EE27B99AC1CF109639F086E685
:101628009EE00197F1F7A8951197C9F70895F195EC
:10163800E195F0400895EE230E2EEA2F19F0EE0FF3
:101648000A94E9F70895EE230E2EEA2F19F0E6958D
:101658000A94E9F70895EE230E2EFD0121F0F59581
:10166800E7950A94E1F70895FA9FF02DEB9FF00DA6
:10167800EA9FE02DF10D08957A9F702D6B9F700DF4
:10168800F89F700DE99F700D6A9F602D710DFB9F8B
:10169800600D711DE89F600D711D8827FA9FF02D60
:1016A800610D781FEB9FF00D611D781FEA9FE02DFB
:1016B800F10D681F781F08952AD0D6DF0EF4B7DF22
:1016C80008950024112490E1AA0FBB1F001C111CCF
:1016D8000E1A1F0A18F40E0E1F1E01C0A1609A955B
:1016E80099F7FD01D001089512D0EBDF0EF49FDFCA
:1016F8000895E894B7FF04C0A095B0951196689432
:10170800F7FD95DFDEDFFD010EF491DF0895E89423
:10171800F7FF02C08CDF6894B7FF06C0A095B095AC
:10172800119600F8039400FA0895ED91FC91119731
:101738000895E199FECFFF93FFB7F894AEBBBFBB06
:10174800E09AEDB3FFBFFF910895E19B02C0A89511
:10175800FCCF9FB7F894AEBBBFBBE09A8DB3E81738
:1017680019F0EDBBE29AE19A9FBF089500240A168A
:101778000B0608955A934A933A932A931A930A9315
:1017880008955D814C813B812A81198108810895E2
:00000001FF
